:020000040800F2
:10000000B8560020452300082D210008392100089A
:10001000412100084921000851210008000000008A
:10002000000000000000000000000000592100084E
:100030006521000800000000712100083554000807
:10004000A5230008A5230008A5230008A523000870
:10005000A5230008A5230008A5230008A523000860
:10006000A5230008A5230008A5230008A523000850
:10007000A5230008A5230008A5230008A523000840
:10008000A5230008A5230008A5230008A523000830
:10009000A5230008A5230008A5230008A523000820
:1000A000A5230008A5230008A5230008A523000810
:1000B000A5230008A5230008A5230008A523000800
:1000C000A5230008A5230008A5230008A5230008F0
:1000D0007D210008A5230008A5230008A52300080A
:1000E000A5230008A5230008AD540008A523000897
:1000F000A5230008A5230008A5230008A5230008C0
:10010000A5230008A5230008A5230008A5230008AF
:10011000A5230008A5230008A5230008A52300089F
:10012000A5230008A5230008A5230008A52300088F
:10013000A5230008A5230008A5230008A52300087F
:10014000A5230008A5230008A52300089D54000846
:10015000A5230008A5230008A5230008A52300085F
:10016000A5230008A5230008A5230008A52300084F
:10017000A5230008A5230008A5230008A52300083F
:10018000A5230008A523000880B584B000AF7860DF
:1001900039600023FB733B685B78092B39D801A2D7
:1001A00052F823F0F50100080902000813020008C4
:1001B000FF01000813020008D7010008CD01000864
:1001C00013020008EB010008E101000878683968B3
:1001D00000F036F922E07868396800F00DFA1DE089
:1001E0007868396800F046FA18E07868396800F0F5
:1001F000BBFA13E07868396800F0E6FA0EE0786838
:10020000396800F009FB09E07868396800F06AFB9A
:1002100004E07868396800F0D5FB00BFFB7B184626
:100220001037BD4680BD00BF80B584B000AF786098
:1002300039600023FB737B6893F81231032B1CD1C8
:100240003B689B88DBB2012B11D87B68D3F8E03583
:100250009B687868396898473B68DB88002B0BD12E
:10026000FB7B002B08D1786805F09AFF0AE07868DC
:10027000396800F0A7FB05E004E07868396800F011
:10028000A1FB00BFFB7B18461037BD4680BD00BFF9
:1002900080B584B000AF786039600023FB733B68A1
:1002A0009B88BB733B685B78012B39D0032B02D052
:1002B000002B6BD0BCE07B6893F81231022B02D08C
:1002C000032B0DD026E0BB7B002B08D0BB7B802B03
:1002D00005D0BB7B7868194604F028FD1FE01EE0BE
:1002E0003B685B88002B0AD1BB7B002B07D0BB7B14
:1002F000802B04D0BB7B7868194604F017FD7B681F
:10030000D3F8E0359B68786839689847786805F0D5
:1003100047FF04E07868396800F054FB00BF87E0CD
:100320007B6893F81231022B02D0032B0DD027E00B
:10033000BB7B002B08D0BB7B802B05D0BB7B7868B8
:10034000194604F0F3FC20E01FE03B685B88002BBB
:1003500015D1BB7B002B0ED0BB7B802B0BD0BB7B86
:100360007868194604F01CFD7B68D3F8E0359B687B
:10037000786839689847786805F012FF05E004E06E
:100380007868396800F01EFB00BF51E07B6893F885
:100390001231022B02D0032B0DD043E0BB7B002B8C
:1003A00008D0BB7B802B05D0BB7B7868194604F056
:1003B000BDFC3CE03BE0BB7B5BB2002B15DABB7BBA
:1003C00003F07F02796813469B001344DB000B4463
:1003D00003F58C739B78002B03D0184B01221A6015
:1003E0001AE0164B00221A6016E0BB7B5BB2002BB2
:1003F00012DBBA7B796813469B001344DB000B4485
:1004000003F55C739B78002B03D00C4B01221A6020
:1004100002E00A4B00221A6078680849022205F0BF
:1004200057FE04E07868396800F0CCFA00BF00BFDE
:10043000FB7B18461037BD4680BD00BF540400202A
:1004400080B584B000AF786039603B685B881B0A78
:100450009BB2013B062B00F2B18001A252F823F0BF
:100460007D040008AF040008D9040008BD05000899
:10047000BD050008A9050008B30500087B68D3F88E
:10048000E8351B687A68917807F10A020846114638
:100490009847F8603B68DB88402B04D07B6893F872
:1004A0001231012B02D108237B818CE08BE07B6829
:1004B000D3F8E0359B6A7A68917807F10A0208461A
:1004C00011469847F860FB68013302221A707B6876
:1004D000FA68C3F8EC2576E03B685B88DBB2052B55
:1004E0005CD801A252F823F0010500081B050008A2
:1004F000350500084F050008690500088305000858
:100500007B68D3F8E8355B687A68917807F10A026E
:10051000084611469847F86045E07B68D3F8E8350F
:100520009B687A68917807F10A0208461146984755
:10053000F86038E07B68D3F8E835DB687A68917852
:1005400007F10A02084611469847F8602BE07B68DD
:10055000D3F8E8351B697A68917807F10A020846F2
:1005600011469847F8601EE07B68D3F8E8355B6970
:100570007A68917807F10A02084611469847F860B0
:1005800011E07B68D3F8E8359B697A68917807F1C8
:100590000A02084611469847F86004E0786839680E
:1005A00000F010FA24E00EE07868396800F00AFAEA
:1005B0001EE07868396800F005FA19E07868396853
:1005C00000F000FA14E07B89002B11D03B68DB8837
:1005D000002B0DD03B68DA887B89934228BF1346F5
:1005E0009BB27B817B897868F9681A4605F070FDBB
:1005F0001037BD4680BD00BF80B584B000AF7860C5
:1006000039603B689B88002B2DD13B68DB88002B31
:1006100029D13B685B88DBB203F07F03FB737B6807
:1006200093F81231032B04D17868396800F0CAF9C5
:1006300018E07B68FA7B83F81321FB7B7868194606
:1006400004F002FC786805F0ABFDFB7B002B04D0C6
:100650007B68022283F8122104E07B68012283F880
:10066000122104E003E07868396800F0ABF9103734
:10067000BD4680BD80B582B000AF786039603B6810
:100680005B88DAB2374B1A70364B1B78012B04D9D2
:100690007868396800F096F960E07B6893F8123169
:1006A000022B02D0032B1BD053E02E4B1B78002BC8
:1006B00012D02C4B1A787B6883F810217B680322B8
:1006C00083F81221274B1B787868194605F0B4FC93
:1006D000786805F065FD41E0786805F061FD3DE072
:1006E000204B1B78002B12D17B68022283F8122149
:1006F0001C4B1A787B6883F810211A4B1B7878689A
:10070000194605F0B1FC786805F04AFD20E07B68E9
:1007100093F81021134B1B789A4215D07B6893F8FD
:1007200010317868194605F09FFC0E4B1A787B68EB
:1007300083F810210B4B1B787868194605F07CFC78
:10074000786805F02DFD03E0786805F029FD05E0E7
:1007500004E07868396800F035F900BF0837BD4615
:1007600080BD00BF6004002080B582B000AF78601B
:1007700039603B68DB88012B04D07868396800F069
:1007800021F91BE07B6893F81231022B02D0032B76
:1007900006D00EE078680B49012205F099FC0DE0C7
:1007A0007B6803F5887378681946012205F090FC90
:1007B00004E07868396800F005F900BF0837BD46E5
:1007C00080BD00BF5804002080B582B000AF7860C3
:1007D00039607B6893F81231023B012B11D87B689A
:1007E000D3F81431002B03D00A4B03221A6002E025
:1007F000084B01221A6078680649012205F068FC5E
:1008000004E07868396800F0DDF800BF0837BD46BD
:1008100080BD00BF5C04002080B584B000AF78606C
:1008200039600023FB733B685B88012B0ED17B682A
:100830000122C3F814217B68D3F8E0359B687868FF
:1008400039689847786805F0ABFC48E03B685B88FE
:10085000022B44D13B689B88DBB2002B3FD17B68E5
:100860001B695B68BB603B689B881B0A9BB2FB7380
:10087000FB7B013B042B2BD801A252F823F000BFD5
:1008800095080008A1080008AD080008B90800088C
:10089000C50800083B7A012262F306133B7217E099
:1008A0003B7A022262F306133B7211E03B7A032289
:1008B00062F306133B720BE03B7A042262F30613E9
:1008C0003B7205E03B7A052262F306133B7200BFE0
:1008D0007B681B69BA685A60786805F061FC10375C
:1008E000BD4680BD80B582B000AF786039607B685E
:1008F00093F81231023B012B13D83B685B88012B24
:100900000ED17B680022C3F814217B68D3F8E03550
:100910009B68786839689847786805F041FC05E07D
:1009200004E07868396800F04DF800BF0837BD462C
:1009300080BD00BF80B483B000AF786039607B6851
:1009400093F8C8253B681A707B6893F8C9253B6803
:100950005A707B6893F8CA359AB27B6893F8CB35A6
:100960009BB21B029BB213449AB23B685A807B68CD
:1009700093F8CC359AB27B6893F8CD359BB21B02C5
:100980009BB213449AB23B689A807B6893F8CE3549
:100990009AB27B6893F8CF359BB21B029BB213448B
:1009A0009AB23B68DA803B68DB881A467B68C3F8FA
:1009B0003C217B68012283F811210C37BD465DF88C
:1009C000047B704780B582B000AF786039603B68C7
:1009D0001B78DBB25BB2002B04DA7868802104F06C
:1009E000A5F90CE03B68DB88002B04D178688021F6
:1009F00004F09CF903E07868002104F097F9786826
:100A000003F062FB0837BD4680BD00BF80B586B0ED
:100A100000AFF860B9607A600023FB75FB68002BBB
:100A200033D0F86800F034F8034601339BB25B0022
:100A30009AB27B681A80FB7D5A1CFA751A46BB680D
:100A400013447A681288D2B21A70FB7D5A1CFA7568
:100A50001A46BB68134403221A7012E0FB7D5A1C2D
:100A6000FA751A46BB681A44FB68591CF9601B7872
:100A70001370FB7D5A1CFA751A46BB68134400229A
:100A80001A70FB681B78002BE8D11837BD4680BD73
:100A900080B485B000AF78600023FB7305E0FB7B7A
:100AA0000133FB737B6801337B607B681B78002B11
:100AB000F5D1FB7B18461437BD465DF8047B7047C3
:100AC00080B400AF00231846BD465DF8047B704734
:100AD00080B400AF00231846BD465DF8047B704724
:100AE00080B485B000AFF860B9607A60FB68232BF2
:100AF00074D801A252F823F0DD0B0008DD0B0008CA
:100B0000DD0B0008DD0B0008DD0B0008DD0B000825
:100B1000DD0B0008DD0B0008DD0B0008DD0B000815
:100B2000DD0B0008DD0B0008DD0B0008DD0B000805
:100B3000DD0B0008DD0B0008DD0B0008DD0B0008F5
:100B4000DD0B0008DD0B0008DD0B0008DD0B0008E5
:100B5000DD0B0008DD0B0008DD0B0008DD0B0008D5
:100B6000DD0B0008DD0B0008DD0B0008DD0B0008C5
:100B7000DD0B0008DD0B0008DD0B0008890B000809
:100B8000DD0B0008DD0B0008184B1B68DAB2BB68F0
:100B90001A70BB680133154A1268120AD2B21A7071
:100BA000BB680233114A1268120CD2B21A70BB68C9
:100BB00003330E4A1268120ED2B21A70BB680433A5
:100BC0000A4A12791A70BB680533084A52791A70BA
:100BD000BB680633054A92791A7000E000BF002313
:100BE00018461437BD465DF8047B704700000020AE
:100BF00080B582B000AF0346FB71FB1D1846012192
:100C000000F02AF80837BD4680BD00BF80B584B02B
:100C100000AF78600023FB6002E0FB680133FB60FB
:100C20007A68FB6813441B78002BF6D17868F96862
:100C300000F012F81037BD4680BD00BF80B582B00D
:100C400000AF786039603B687868194600F004F8B6
:100C50000837BD4680BD00BF80B485B000AF786066
:100C600039600023FB6017E0114B1B687968FA6854
:100C70000A4411780F4AD1540D4B1B6801330C4ABA
:100C80001360FB680133FB60094B1B68B3F5005F21
:100C900002D1074B00221A60FA683B689A42E3D3FC
:100CA000002318461437BD465DF8047B704700BF2B
:100CB00088040020B82E002080B485B000AF786092
:100CC00039600023FB601EE0144B1B687968FA68EA
:100CD0000A441178124AD154104B1B6801330F4A51
:100CE00013600E4B1B68802B02D10C4B00221A6044
:100CF0000A4B1A680B4B1B689A4201D1022307E08A
:100D0000FB680133FB60FA683B689A42DCD300233E
:100D100018461437BD465DF8047B70476C0500200B
:100D2000D80400205805002080B483B000AF78605C
:100D3000104B1A68104B1B689A4201D1002312E035
:100D40000D4B1B680D4AD25C7B681A700A4B1B68FE
:100D50000133094A1360084B1B68802B02D1064BF4
:100D600000221A60012318460C37BD465DF8047B4B
:100D7000704700BF6C05002058050020D8040020F3
:100D800080B485B000AF7860424B1A68424B1B6854
:100D90009A4201D1002376E013E03F4B1B680133F8
:100DA0003D4A13603C4B1B68802B02D13A4B00221A
:100DB0001A60384B1A68384B1B689A4201D10023DD
:100DC00061E0354B1B68354AD35C002BE5D0324BD4
:100DD0001B68324AD35C0A2BDFD02F4B1B682F4A8B
:100DE000D35C0D2BD9D00023FB60FB687A681344D9
:100DF000F968294A12680A4428498A5C1A70FB6813
:100E00000133FB60244B1A68FB681344802B03D129
:100E1000214B1B685B42FB601F4B1A68FB681A443E
:100E20001C4B1B689A4201D100232CE01A4B1A6814
:100E3000FB681344194AD35C002B0FD0164B1A6879
:100E4000FB681344154AD35C0A2B07D0124B1A686F
:100E5000FB681344114AD35C0D2BC6D1FB687A683A
:100E6000134400221A700C4B1A68FB6813440A4A98
:100E70001360094B1B687F2B04D9074B1B68803B11
:100E8000054A1360FB6818461437BD465DF8047BBD
:100E9000704700BF6C05002058050020D8040020D2
:100EA00080B400AFBD465DF8047B704780B586B066
:100EB00000AF786000237B61786802F01BFB03467B
:100EC000002B00F09C80786802F038FB03463B6101
:100ED0003B69002B01D1002392E0BB7C03F00803A7
:100EE000DBB2002B06D0786800F012FA02467B696C
:100EF00013437B61BB7C03F00403DBB2002B06D001
:100F0000786800F00FF902467B6913437B613B7CF4
:100F100003F00203DBB2002B09D00023FB603B7B14
:100F200043F002033B737B68DB68FA685A61FB7C21
:100F300023F07F03DBB2002B06D0786800F064F862
:100F400002467B6913437B617B7C03F00803DBB2C1
:100F5000002B06D0786800F097F802467B691343AF
:100F60007B613B7C03F00803DBB2002B06D0786882
:100F700000F08AFA02467B6913437B613B7C03F0F5
:100F80001003DBB2002B06D0786800F097FA024617
:100F90007B6913437B617B7C03F01003DBB2002B86
:100FA00006D0786800F07EFB02467B6913437B61C4
:100FB0007B7C03F02003DBB2002B06D0786800F0C6
:100FC0000DFC02467B6913437B61BB7C03F010037D
:100FD000DBB2002B06D0786800F03CFC02467B694F
:100FE00013437B61BB7C03F02003DBB2002B06D0F4
:100FF000786800F049FC02467B6913437B617B699A
:1010000018461837BD4680BD80B586B000AF786001
:101010007B689B7A002B11D07B6803F586731B6875
:10102000FB603B7B6FF341033B733B7B6FF3000340
:101030003B737B68D3F80C31FA681A6000233B617C
:101040003B7C43F001033B747B681B697A6812693F
:1010500051683A69D2430A405A600A4B1B689B693F
:101060007868984700237B61FB7D43F08003FB7524
:101070007B68DB687A695A61012318461837BD46D8
:1010800080BD00BFDC00002080B586B000AF786076
:10109000224B1B685B69786898477B681B699B6873
:1010A000FB6000237B617B7D43F008037B757B68DD
:1010B000DB687A695A617B689B7A002B29D03B7B7D
:1010C00003F00103DBB2002B23D000233B613B7C08
:1010D00043F001033B747B68D3F80C317A68D2F893
:1010E0000C2111683A690A431A603B7C43F0020301
:1010F0003B747B68D3F80C317A68D2F80C21116804
:101100003A690A431A60064A054B1B6943F0060315
:101110001361012318461837BD4680BDDC0000204E
:1011200000ED00E080B586B000AF786000233B6141
:101130000023BB60786802F0B1FF7861DCE07B6976
:1011400003F00103002B00F0D1803B69DBB278682B
:10115000194600F0B3FB0346BB603B7A03F0010382
:10116000DBB2002B32D03B69012202FA03F3FB60B1
:101170007B681B697A681269516BFA68D2430A402E
:101180005A630023BB603B7A43F001033B727A68E9
:101190003B6904339B0013449B68BA689A605B4BBD
:1011A0001B685B683A69D2B27868114698477B68D9
:1011B000DB78012B0AD13B69002B07D17B6893F8C0
:1011C0001131042B02D1786802F07EFF3B7A03F0E4
:1011D0000403DBB2002B0DD00023BB603B7A43F04D
:1011E00004033B727A683B6904339B0013449B6899
:1011F000BA689A603B7A03F00803DBB2002B0DD08B
:101200000023BB603B7A43F008033B727A683B697A
:1012100004339B0013449B68BA689A603B7A03F0DE
:101220001003DBB2002B0DD00023BB603B7A43F0F0
:1012300010033B727A683B6904339B0013449B683C
:10124000BA689A603B7A03F02003DBB2002B0DD022
:101250000023BB603B7A43F020033B727A683B6912
:1012600004339B0013449B68BA689A603B7A03F08E
:101270004003DBB2002B0DD00023BB603B7A43F070
:1012800040033B727A683B6904339B0013449B68BC
:10129000BA689A603B7A03F00203DBB2002B0DD0F0
:1012A0000023BB603B7A43F002033B727A683B69E0
:1012B00004339B0013449B68BA689A603B7A23F01E
:1012C0007F03DBB2002B11D07868396900F078F920
:1012D0000023BB603B7A43F080033B727A683B6932
:1012E00004339B0013449B68BA689A603B690133DE
:1012F0003B617B695B087B617B69002B7FF41FAFDF
:10130000012318461837BD4680BD00BFDC00002011
:1013100080B586B000AF786000233B610023FB609E
:10132000786802F089FE7861A3E07B6903F001032D
:10133000002B00F098803B69DBB27868194602F018
:1013400091FE0346FB603B7B03F00103DBB2002B05
:1013500048D00023FB603B7B43F001033B737A687A
:101360003B6914339B0013445B68FA689A607B689E
:10137000DB78012B1FD17A683B6914339B0013443F
:101380005B681B69BB6079683A6913469B0013442C
:10139000DB000B4403F55E731B68BA68C2F31202EC
:1013A000991A78683A6913469B001344DB0003449A
:1013B00003F562731960334B1B681B683A69D2B23C
:1013C0007868114698477B68DB78012B0AD13B6926
:1013D000002B07D17B6893F81131052B02D1786877
:1013E00002F072FE3B7B03F00203DBB2002B0DD058
:1013F0000023FB603B7B43F002033B737A683B694D
:1014000014339B0013445B68FA689A603B7B03F0DB
:101410000403DBB2002B0DD00023FB603B7B43F0C9
:1014200004033B737A683B6914339B0013445B6885
:10143000FA689A603B7B03F00803DBB2002B12D002
:10144000104B1B689B68786898470023FB603B7BC8
:1014500043F008033B737A683B6914339B001344E1
:101460005B68FA689A603B6901333B617B695B08A2
:101470007B617B69002B7FF458AF01231846183736
:10148000BD4680BDDC00002080B584B000AF786030
:10149000094B1B68DB68786898470023FB603B7B3F
:1014A00043F008033B737B68DB68FA685A610123E9
:1014B00018461037BD4680BDDC00002080B586B0E0
:1014C00000AF786000233B613B7C43F010033B742A
:1014D0007B68DB687A68D26891693A69D2430A40CE
:1014E0009A617B68DB681B6AFB603B7BC3F3030389
:1014F000DBB21A4613469B001344DB0003F55C7312
:101500007A6813447B61BB7BC3F34303DBB2013BCB
:10151000052B47D801A252F823F000BFA5150008FB
:1015200035150008A5150008A5150008A515000823
:1015300081150008BA8947F6F07313409BB2002B5F
:101540001DD07B69DA68BB89C3F30A139BB2786844
:1015500011461A4601F014FD7B69DB68BA89C2F3B3
:101560000A1292B21A447B69DA607B699B69BA8974
:10157000C2F30A1292B21A447B699A6113E012E034
:101580007B6803F5B96378681946082201F0F8FC16
:101590007B699B69BA89C2F30A1292B21A447B69C9
:1015A0009A6100E000BF7B68DB687A68D268916965
:1015B0003A690A439A61012318461837BD4680BD2F
:1015C00080B586B000AF7860396000237B6100236E
:1015D000BB603A6813469B001344DB0003F58C7331
:1015E0007A681344FB60FB685A69FB689B69D31AED
:1015F0007B61FB689A687B699A4202D2FB689B68B0
:101600007B617B6903339B083B617A683B680433E9
:101610009B0013449B689B69BB602EE0FB685A6982
:10162000FB689B69D31A7B61FB689A687B699A4265
:1016300002D2FB689B687B617B6903339B083B613B
:10164000FB68D9683B68DAB27B699BB2786801F0C5
:101650005BFCFB68DA687B691A44FB68DA60FB684C
:101660009A697B691A44FB689A617A683B6804331B
:101670009B0013449B689B69BB603B891A463B698E
:101680009A4209D9FB689A69FB685B699A4203D25E
:10169000FB685B69002BC1D1012318461837BD4692
:1016A00080BD00BF80B58AB000AF786000233B6189
:1016B00000233B620023FB610023BB6100237B61AD
:1016C0000023FB603B7C43F001033B747B681B6998
:1016D0007A68126951683A69D2430A405A60786858
:1016E000002101F059FE00237B6212E07A687B6AD8
:1016F00004339B0013449B68FF229A607A687B6ADC
:1017000014339B0013445B68FF229A607B6A0133A9
:101710007B627B685B781A467B6A9A42E6D87B6874
:101720001B694FF0FF329A6101233B8401237B84C4
:101730007B681B693A6ADA613B7F43F008033B77B9
:101740003B7F43F001033B773B7F43F004033B7750
:101750003B7F43F002033B777B681B69FA695A6160
:101760003B7E43F001033B763B7E43F008033B7630
:101770003B7E43F002033B763B7E43F004033B7623
:101780003B7E43F020033B767B681B69BA691A6194
:101790007B681B691B687B61BB8A6FF30A13BB8282
:1017A0007B681B697A691A60786802F08DFC0023F7
:1017B000FB607B7B43F010037B737B68DB68FA681C
:1017C0005A61054B1B681B697868984701231846C6
:1017D0002837BD4680BD00BFDC00002080B584B046
:1017E00000AF7860786802F08DF87B68DB68DB68B2
:1017F000BB60786802F062F80346032B0CD17B686B
:1018000000229A707B684FF400729A807B7A0922DA
:1018100062F385037B720AE07B6801229A707B6821
:1018200040229A807B7A052262F385037B727B6873
:10183000DB68BA68DA600023FB607B7B43F020033F
:101840007B737B68DB68FA685A610123184610379E
:10185000BD4680BD80B584B000AF78600023FB60DA
:10186000084B1B68DB6978689847BB7B43F0100323
:10187000BB737B68DB68FA685A610123184610372E
:10188000BD4680BDDC00002080B584B000AF78602C
:101890000023FB60084B1B681B6A78689847BB7B7A
:1018A00043F02003BB737B68DB68FA685A6101234D
:1018B00018461037BD4680BDDC00002080B487B0DC
:1018C00000AF78600B46FB707B681B691B697B610E
:1018D0007B681B695B6B3B61FB783A6922FA03F317
:1018E000DB01DBB27A6913437B61FB787A680433EE
:1018F0009B0013449B689A687B691340FB60FB68FC
:1019000018461C37BD465DF8047B704780B582B031
:1019100000AF78607B68174A93420AD14FF4805039
:10192000012101F03BF94FF48050002101F036F91C
:101930001CE07B68104A93420AD14FF48040012199
:1019400001F00EF94FF48040002101F009F90DE09B
:101950007B680A4A934209D14FF40040012101F00B
:10196000FFF84FF40040002101F0FAF80837BD46B7
:1019700080BD00BF0030014000380040003C004006
:1019800080B485B000AF786039600023FB817B684C
:101990001B88FB81FB8903F44153FB813B681A8858
:1019A0003B685B8813439AB23B689B8813439AB2A7
:1019B0003B68DB8813439AB23B681B8913439AB296
:1019C0003B685B8913439AB23B689B8913439AB285
:1019D0003B68DB8913439AB2FB891343FB817B6825
:1019E000FA891A807B689B8B9BB223F400639AB2BE
:1019F0007B689A833B681A8A7B681A821437BD46D3
:101A00005DF8047B704700BF80B48BB000AF786096
:101A1000396000237B830223FB840023BB840123E2
:101A20007B840023FB6100237B6100233B61002357
:101A3000FB600023BB607B689B8B9BB223F47B63C2
:101A400023F00F039AB27B689A837B6802221A8480
:101A50007B689B8B7B833B689B68022B04D10023B4
:101A6000BB840223FB8472E03B689B88002B02D17D
:101A700001237B8401E002237B844D4B9B6803F4AC
:101A80000003002B05D04A4A494B9B6823F400030E
:101A90009360474BD3F8842047F6C07313409B09EB
:101AA000C3F30803FB60424BD3F8843003F0E043F8
:101AB0001B0F03F00703BB603D4B5B6803F03F0364
:101AC0003B613C4A3B69B2FBF3F3FA6802FB03F269
:101AD000BB68B2FBF3F37B613B68DB88B3F5007F47
:101AE0000FD17B691A0A13469B0013445B001A4608
:101AF0003B689B68B2FBF3F39BB205339BB2FB617F
:101B000012E07B8C5B011A467B69B3FBF2F2134651
:101B10009B0013445B001A463B689B68B2FBF3F3DF
:101B20009BB205339BB2FB61FB69234AA2FB0323F3
:101B3000DB08FB61FB699BB203F00103BB84BB8C38
:101B4000FA69D31A5B08FB84BB8C1B02BB84FB8C39
:101B5000012B02D9FB8CFF2B03D90223FB8400232A
:101B6000BB843B68DA88BB8C13439AB2FB8C13436B
:101B70009AB27B681A843B681A883B6859883B682C
:101B800098883B689B8903439BB20B439BB21343EA
:101B90009AB27B8B13439BB243F400637B837B68D5
:101BA0007A8B9A832C37BD465DF8047B704700BF63
:101BB0000038024000127A00CDCCCCCC80B483B087
:101BC00000AF78607B6800221A807B6800225A8010
:101BD0007B6800229A807B680022DA807B68002282
:101BE0001A817B6800225A817B6800229A817B6877
:101BF0000022DA817B6807221A820C37BD465DF825
:101C0000047B704780B483B000AF78607B680022AB
:101C10001A807B6800225A807B6800229A807B6849
:101C20000022DA807B6802229A607B6800229A8117
:101C30000C37BD465DF8047B704700BF80B483B0AD
:101C400000AF78600B46FB70FB78002B08D07B68F8
:101C50001B889BB243F040039AB27B681A8007E06E
:101C60007B681B889BB223F040039AB27B681A8082
:101C70000C37BD465DF8047B704700BF80B483B06D
:101C800000AF78600B46FB70FB78002B08D07B68B8
:101C90009B8B9BB243F480639AB27B689A8307E084
:101CA0007B689B8B9BB223F480639AB27B689A8398
:101CB0000C37BD465DF8047B704700BF80B483B02D
:101CC00000AF78600B467B807B681B889BB223F457
:101CD00000639AB27B681A807B681B889AB27B8803
:101CE00013439AB27B681A800C37BD465DF8047BBB
:101CF000704700BF80B483B000AF78600B467B8034
:101D00007B88B3F5804F08D17B681B889BB243F476
:101D100080439AB27B681A8007E07B681B889BB27D
:101D200023F480439AB27B681A800C37BD465DF875
:101D3000047B704780B483B000AF78600B467B8033
:101D40007B884FF6FF62934208D07B681B889BB26A
:101D500043F480739AB27B681A8007E07B681B8823
:101D60009BB223F480739AB27B681A800C37BD460D
:101D70005DF8047B704700BF80B483B000AF78602B
:101D80000B46FB70FB78002B08D07B689B889BB2CE
:101D900043F004039AB27B689A8007E07B689B88D3
:101DA0009BB223F004039AB27B689A800C37BD463D
:101DB0005DF8047B704700BF80B483B000AF7860EB
:101DC0000B46FB70FB78002B08D07B689B889BB28E
:101DD00043F010039AB27B689A8007E07B689B8887
:101DE0009BB223F010039AB27B689A800C37BD46F1
:101DF0005DF8047B704700BF80B485B000AF7860A9
:101E000039600023BB810023FB817B689B8B9BB2E5
:101E100023F47B6323F00F039AB27B689A837B6879
:101E200002221A847B689B8BBB813B681B88B3F5BD
:101E3000007F03D03B681B88002B03D14FF48073D5
:101E4000FB810BE03B681B88B3F5407F04D03B6807
:101E50001B88B3F5807F01D10023FB813B685A8842
:101E60003B6899883B689B890B439BB213439AB2AA
:101E7000FB8913439AB2BB8913439BB243F40063BB
:101E8000BB817B68BA899A831437BD465DF8047BB1
:101E9000704700BF80B483B000AF78607B689B89D7
:101EA0009BB218460C37BD465DF8047B704700BFF7
:101EB00080B483B000AF78600B467B807B687A8803
:101EC0009A810C37BD465DF8047B704780B483B0BF
:101ED00000AF78600B46FB70FB78002B08D07B6866
:101EE0001B889BB243F400539AB27B681A8007E0C8
:101EF0007B681B889BB223F400539AB27B681A80DC
:101F00000C37BD465DF8047B704700BF80B483B0DA
:101F100000AF78607B681B889BB243F480539AB211
:101F20007B681A800C37BD465DF8047B704700BFA4
:101F300080B485B000AF78600B46FB700023FB8156
:101F4000FB78012B03D07B681B8BFB8102E07B6855
:101F50009B8AFB81FB8918461437BD465DF8047BDC
:101F6000704700BF80B483B000AF78607B681B8A85
:101F70009BB218460C37BD465DF8047B704700BF26
:101F800080B483B000AF78600B467B8013467B70D3
:101F90007B78002B08D07B689B889AB27B881343A0
:101FA0009AB27B689A8009E07B689B889AB27B88AA
:101FB000DB439BB213409AB27B689A800C37BD46D4
:101FC0005DF8047B704700BF80B485B000AF7860D7
:101FD0000B46FB701346BB700023FB810023BB81C3
:101FE000FB781B09DBB2FB81FB89012202FA03F3B8
:101FF000BB81BB78002B08D07B689B889AB2BB89D9
:1020000013439AB27B689A8009E07B689B889AB2F6
:10201000BB89DB439BB213409AB27B689A8014372A
:10202000BD465DF8047B704780B485B000AF786032
:102030000B467B800023FB737B681B899AB27B88ED
:1020400013409BB2002B02D00123FB7301E000235D
:10205000FB73FB7B18461437BD465DF8047B704765
:1020600080B483B000AF78600B467B807B88DB4315
:102070009AB27B681A810C37BD465DF8047B7047C5
:1020800080B485B000AF78600B46FB700023FB7313
:102090000023BB8100237B8100233B81FB7803F07D
:1020A0000F03012202FA03F3BB81FB781B09DBB2A9
:1020B0007B817B89012202FA03F37B817B689B8809
:1020C0009AB27B8913403B817B681B899AB2BB899A
:1020D00013409BB2002B05D03B89002B02D001237B
:1020E000FB7301E00023FB73FB7B18461437BD46EE
:1020F0005DF8047B704700BF80B485B000AF7860A6
:102100000B46FB700023FB81FB7803F00F030122D9
:1021100002FA03F3FB81FB89DB439AB27B681A81E5
:102120001437BD465DF8047B704700BF80B400AF34
:10213000BD465DF8047B704780B400AFFEE700BF8A
:1021400080B400AFFEE700BF80B400AFFEE700BF81
:1021500080B400AFFEE700BF80B400AFBD465DF8BD
:10216000047B704780B400AFBD465DF8047B7047C8
:1021700080B400AFBD465DF8047B704780B582B087
:1021800000AF1D486021FFF77BFF0346002B30D0D6
:102190001948FFF77FFE0346FB80184B1B685A1C4B
:1021A00016490A60FA88120A92B291B2FA881202AB
:1021B00092B20A4392B291B2114A22F813100F4B15
:1021C0001B68BF2B15D90D4B00221A603223BB8030
:1021D0000C4B1B6801330B4A13600B4B1A68BB880E
:1021E000074811461A46094B04F0FAFB084B012236
:1021F0001A600837BD4680BD0038004064040020E6
:10220000700500207C0400207C170020801700202F
:102210006804002080B500AF4FF48040012100F039
:10222000BDFC4FF48040002100F0B8FC80BD00BF31
:1022300080B483B000AF0346FB71044AFB7913609E
:102240000C37BD465DF8047B704700BF0038014085
:1022500090B484B000AF03460A46FB711346BB71CD
:102260000023FB60BB7903F003039B000F2202FAFB
:1022700003F3FB601649BB799B08DBB21846144A8E
:10228000BB799B08DBB2023352F82320FB68DB43A7
:102290001A40831C41F823200D48BB799B08DBB210
:1022A0001C460B4ABB799B08DBB2023352F8232051
:1022B000F979BB7903F003039B0001FA03F31A4396
:1022C000A31C40F823201037BD4690BC704700BFC8
:1022D0000038014080B483B000AF7860034A7B6867
:1022E00013600C37BD465DF8047B7047DC00274265
:1022F00080B483B000AF0346FB71044AFB791360DE
:102300000C37BD465DF8047B704700BF00042742D0
:1023100080B483B000AF0023FB71094B1B6A03F448
:102320008073002B02D00123FB7101E00023FB71BD
:10233000FB7918460C37BD465DF8047B704700BF3B
:102340000038014080B582B000AF134B7B60134B67
:102350003B6007E03B681A1D3A607A68111D79609E
:1023600012681A603B680E4A9342F3D30F48104933
:102370004FF000028842B8BF40F8042BFADBDFF8C8
:102380003400016841F47001016002F001FA02F0CA
:1023900049FE0837BD4680BDEF78000800000020E8
:1023A0005404002080B400AFFEE700005404002075
:1023B000B84E002088ED00E080B400AF104A104B0A
:1023C0001B6843F0010313600D4B00229A600C4A16
:1023D0000B4B1B6823F0847323F480331360084B8A
:1023E000084A5A60064A064B1B6823F48023136090
:1023F000034B0022DA60BD465DF8047B704700BFE6
:10240000003802401030002480B483B000AF03468F
:10241000FB71054B00221A70034AFB7913700C37CD
:10242000BD465DF8047B70470238024080B582B03B
:1024300000AF00233B600023FB710023BB71312000
:1024400000F086FC0346BB713B6801333B603B6890
:10245000B3F5A06F02D0BB79002BF0D0312000F093
:1024600077FC0346002B02D00123FB7101E000231F
:10247000FB71FB7918460837BD4680BD80B485B036
:1024800000AF0346FB710023FB600A4B1B68FB6037
:10249000FB6823F0F803FB60FB79DB00FA68134369
:1024A000FB60044AFB6813601437BD465DF8047B8B
:1024B000704700BF0038024080B483B000AF0346CD
:1024C000FB71044AFB7913600C37BD465DF8047B51
:1024D000704700BF0000474280B483B000AF03469E
:1024E000FB710C4B00221A700A4B00221A70FB7908
:1024F000012B02D0042B04D007E0064B01221A70F6
:1025000003E0044B05221A7000BF0C37BD465DF88E
:10251000047B70477038024080B483B000AF03463C
:10252000FB71044AFB7913600C37BD465DF8047BF0
:10253000704700BF800E474280B485B000AFF8609E
:10254000B9607A603B600A497B689A01BB681A43AC
:102550003B685B08013B1B041A43FB681A43BB69D9
:102560001B0613434B601437BD465DF8047B704770
:102570000038024080B483B000AF0346FB71044AC8
:10258000FB7913600C37BD465DF8047B704700BFD4
:102590006000474280B483B000AF7860396006497C
:1025A0007B689A013B681B071343C1F884300C37E2
:1025B000BD465DF8047B70470038024080B483B0AC
:1025C00000AF0346FB71044AFB7913600C37BD462C
:1025D0005DF8047B704700BF6800474280B483B059
:1025E00000AF0346FB71044AFB7913600C37BD460C
:1025F0005DF8047B704700BF4C00474280B485B053
:1026000000AF786039600023FB600A4B9B68FB6079
:10261000FB6823F0EC63FB607A683B681343FA685D
:102620001343FB60034AFB6893601437BD465DF8B3
:10263000047B70470038024080B485B000AF7860FA
:1026400039600023FB600A4B9B68FB60FB6823F04A
:102650007843FB607A683B681343FA681343FB6076
:10266000034AFB6893601437BD465DF8047B7047EE
:102670000038024080B485B000AF78600023FB6072
:10268000094B9B68FB60FB6823F00303FB60FA685F
:102690007B681343FB60044AFB6893601437BD46B4
:1026A0005DF8047B704700BF0038024080B400AF83
:1026B000054B9B68DBB203F00C03DBB21846BD464A
:1026C0005DF8047B704700BF0038024080B485B0DD
:1026D00000AF78600023FB60094B9B68FB60FB68E0
:1026E00023F0F003FB60FA687B681343FB60044A45
:1026F000FB6893601437BD465DF8047B704700BFEC
:102700000038024080B485B000AF78600023FB60E1
:10271000094B9B68FB60FB6823F4E053FB60FA689D
:102720007B681343FB60044AFB6893601437BD4623
:102730005DF8047B704700BF0038024080B485B06C
:1027400000AF78600023FB60094B9B68FB60FB686F
:1027500023F46043FB607B68DB00FA681343FB6093
:10276000034AFB6893601437BD465DF8047B7047ED
:102770000038024080B489B000AF78600023BB61AC
:1027800000237B610023FB6102233B610023FB608C
:102790000223BB60484B9B6803F00C03BB61BB6921
:1027A000042B07D0082B09D0002B3FD17B68434A6C
:1027B0001A603FE07B68424A1A603BE03E4B5B6830
:1027C00003F480039B0DFB603B4B5B6803F03F030E
:1027D000BB60FB68002B0DD0394ABB68B2FBF3F23B
:1027E000354B596847F6C0730B409B0903FB02F356
:1027F000FB610CE0314ABB68B2FBF3F22E4B596827
:1028000047F6C0730B409B0903FB02F3FB612A4BA5
:102810005B6803F440331B0C01335B003B61FA69D6
:102820003B69B2FBF3F27B681A6003E07B68234AE2
:102830001A6000BF204B9B6803F0F003BB61BB69CB
:102840001B09BB611F4ABB6913441B78DBB27B6168
:102850007B681A687B69DA407B685A60164B9B6814
:1028600003F4E053BB61BB699B0ABB61154ABB69BA
:1028700013441B78DBB27B617B685A687B69DA4062
:102880007B689A600C4B9B6803F46043BB61BB6937
:102890005B0BBB610B4ABB6913441B78DBB27B61EA
:1028A0007B685A687B69DA407B68DA602437BD460A
:1028B0005DF8047B704700BF003802400024F4003C
:1028C00000127A001C00002080B485B000AF786050
:1028D0000023FB607B6803F44073B3F5407F11D1A4
:1028E0000F4B9B68FB60FB6823F4F813FB607B686D
:1028F00023F0704323F44073FA681343FB60084AE3
:10290000FB6893600649064B1A6F7B68C3F30B03A1
:1029100013430B671437BD465DF8047B704700BF57
:102920000038024080B483B000AF0346FB71044A14
:10293000FB7913600C37BD465DF8047B704700BF20
:102940003C0E474280B483B000AF0346FB71044A9B
:10295000FB7913600C37BD465DF8047B704700BF00
:10296000400E474280B483B000AF7860034A7B6872
:1029700013600C37BD465DF8047B70475C0147422D
:1029800080B483B000AF78600B46FB70FB78002BFF
:1029900006D00949084B1A6B7B6813430B6306E0AA
:1029A0000549054B1A6B7B68DB4313400B630C37FF
:1029B000BD465DF8047B70470038024080B483B0A8
:1029C00000AF78600B46FB70FB78002B06D00949FE
:1029D000084B5A6B7B6813434B6306E00549054B74
:1029E0005A6B7B68DB4313404B630C37BD465DF885
:1029F000047B70470038024080B483B000AF786039
:102A00000B46FB70FB78002B06D00949084B9A6BEC
:102A10007B6813438B6306E00549054B9A6B7B6823
:102A2000DB4313408B630C37BD465DF8047B704776
:102A30000038024080B483B000AF78600B46FB7072
:102A4000FB78002B06D00949084B1A6C7B681343AE
:102A50000B6406E00549054B1A6C7B68DB431340A9
:102A60000B640C37BD465DF8047B704700380240AC
:102A700080B483B000AF78600B46FB70FB78002B0E
:102A800006D00949084B5A6C7B6813434B6406E037
:102A90000549054B5A6C7B68DB4313404B640C378C
:102AA000BD465DF8047B70470038024080B483B0B7
:102AB00000AF78600B46FB70FB78002B06D009490D
:102AC000084B1A697B6813430B6106E00549054B07
:102AD0001A697B68DB4313400B610C37BD465DF818
:102AE000047B70470038024080B483B000AF786048
:102AF0000B46FB70FB78002B06D00949084B5A693E
:102B00007B6813434B6106E00549054B5A697B68B6
:102B1000DB4313404B610C37BD465DF8047B7047C7
:102B20000038024080B483B000AF78600B46FB7081
:102B3000FB78002B06D00949084B9A697B68134340
:102B40008B6106E00549054B9A697B68DB431340BE
:102B50008B610C37BD465DF8047B7047003802403E
:102B600080B483B000AF78600B46FB70FB78002B1D
:102B700006D00949084B1A6A7B6813430B6206E0CA
:102B80000549054B1A6A7B68DB4313400B620C371F
:102B9000BD465DF8047B70470038024080B483B0C6
:102BA00000AF78600B46FB70FB78002B06D009491C
:102BB000084B5A6A7B6813434B6206E00549054B94
:102BC0005A6A7B68DB4313404B620C37BD465DF8A5
:102BD000047B70470038024080B483B000AF786057
:102BE0000B46FB70FB78002B06D00949084B1A6D89
:102BF0007B6813430B6506E00549054B1A6D7B683E
:102C0000DB4313400B650C37BD465DF8047B704712
:102C10000038024080B483B000AF78600B46FB7090
:102C2000FB78002B06D00949084B5A6D7B6813438B
:102C30004B6506E00549054B5A6D7B68DB43134045
:102C40004B650C37BD465DF8047B70470038024089
:102C500080B483B000AF78600B46FB70FB78002B2C
:102C600006D00949084B9A6D7B6813438B6506E0D3
:102C70000549054B9A6D7B68DB4313408B650C3728
:102C8000BD465DF8047B70470038024080B483B0D5
:102C900000AF78600B46FB70FB78002B06D009492B
:102CA000084B1A6E7B6813430B6606E00549054B1B
:102CB0001A6E7B68DB4313400B660C37BD465DF82C
:102CC000047B70470038024080B483B000AF786066
:102CD0000B46FB70FB78002B06D00949084B5A6E57
:102CE0007B6813434B6606E00549054B5A6E7B68CB
:102CF000DB4313404B660C37BD465DF8047B7047E1
:102D00000038024080B483B000AF03460A46FB712E
:102D10001346BB71BB79002B08D00C490B4B1B78B9
:102D2000DAB2FB791343DBB20B7009E00749074BBA
:102D30001B78DAB2FB79DB43DBB21340DBB20B70FA
:102D40000C37BD465DF8047B704700BF0D3802406C
:102D500080B487B000AF0346FB710023FB60002303
:102D60007B610023FB74FB795B09DBB2FB60FB68D2
:102D7000012B03D1124B1B687B6109E0FB68022B1E
:102D800003D10F4B1B6F7B6102E00D4B5B6F7B61CF
:102D9000FB7903F01F03FB60FB687A6922FA03F3F7
:102DA00003F00103002B02D00123FB7401E0002398
:102DB000FB74FB7C18461C37BD465DF8047B7047EE
:102DC0000038024080B400AF044A044B5B6F43F00C
:102DD00080735367BD465DF8047B7047003802403E
:102DE00080B485B000AF0346FB710023FB73094B31
:102DF000DA68FB791340002B02D00123FB7301E05A
:102E00000023FB73FB7B18461437BD465DF8047B3B
:102E1000704700BF0038024080B483B000AF034663
:102E2000FB71044AFB7913700C37BD465DF8047BD7
:102E3000704700BF0E38024080B485B000AF7860A4
:102E40000023FB607B68DB684FF0FF325A607B68D1
:102E5000DB684FF0FF325A61FB7B43F08003FB736A
:102E60007B7B43F008037B737B68DB68FA689A61BD
:102E70001437BD465DF8047B704700BF80B586B04F
:102E800000AF78600023FB7400237B610023FB60AC
:102E9000032002F0F1FD7B68DB681B69FB607B6946
:102EA00001337B617B69174A934201D9002324E0F7
:102EB000FB68DB0FDBB2002BEAD000237B61FB68F1
:102EC00043F00103FB607B68DB68FA681A617B688A
:102ED000DB681B69FB607B6901337B617B69094AA5
:102EE000934200D905E0FB6803F00103DBB2012B3C
:102EF000EDD0032002F0C0FDFB7C18461837BD461C
:102F000080BD00BF400D030080B489B000AFF86001
:102F1000B96011461A460B46FB711346BB8000236D
:102F2000FB76FB68DB78002B22D100237B6100233A
:102F3000FB61BB880333002B00DA03339B107B61FA
:102F4000FB79FA6832339B0013449B683B61002392
:102F5000FB6109E0BB681A683B691A60FB690133D1
:102F6000FB61BB680433BB60FA697B699A42F1D3A9
:102F7000FB7E18462437BD465DF8047B704700BFD2
:102F800080B489B000AFF860B9601346FB800023BD
:102F9000FB61FB880333002B00DA03339B10BB611A
:102FA000FB68D3F8D0307B610023FB6109E07B69CB
:102FB0001A68BB681A60FB690133FB61BB680433A4
:102FC000BB60FA69BB699A42F1D3BB6818462437E3
:102FD000BD465DF8047B704780B487B000AF786071
:102FE0000B46FB7000233B610023FB737B680022D0
:102FF000DA707B6801229A707B6840229A80FB78A5
:10300000012B13D14FF0A0433B617B680122DA72A0
:103010007B6808221A707B6804225A707B684FF420
:10302000A072DA807B6802221A7211E0FB78002B12
:103030000ED1454B3B617B680022DA727B680C2223
:103040001A707B6806225A707B684FF4A062DA809F
:103050003A697B68DA603B6903F500631A467B686E
:103060001A6100237B611CE07B695A013B691344B0
:1030700003F5106319467A687B6904339B00134497
:1030800099607B695A013B69134403F53063194623
:103090007A687B6914339B00134459607B69013360
:1030A0007B617B685B781A467B699A42DCD83B6916
:1030B00003F580631A467B685A613B6903F58863B0
:1030C0001A467B68C3F8CC2000237B610FE07B6944
:1030D0005A013B69134403F5A06319467A687B697A
:1030E00022339B00134499607B6901337B617B68C9
:1030F0001B781A467B699A42E9D800237B610FE06E
:103100007B691A033B69134403F5805319467A68B7
:103110007B6932339B00134499607B6901337B6187
:103120007B681B781A467B699A42E9D83B6903F5AC
:1031300060631A467B68C3F80C21FB7B18461C377A
:10314000BD465DF8047B70470000044080B588B040
:1031500000AF78600023FB770023BB6100237B6115
:103160000023FB607B681B7A012B4FD17B68DB68F7
:103170009B6B7B61BB7D6FF30003BB757B685B7AE8
:10318000002B03D0BB7D43F01003BB757B68DB686D
:103190007A699A630023BB617B68DB68DB68BB618B
:1031A0003B7E6FF386133B76BB7E6FF38613BB7655
:1031B0003B7E43F010033B763B7E6FF3C3033B76CD
:1031C0003B7E6FF3C7133B76BB7E6FF34103BB7649
:1031D000BB7E6FF3C303BB767B68DB68BA69DA60DA
:1031E0007868FFF74BFE7B68DB78012B40F082802C
:1031F0003B7B052262F344033B733B7B43F020039C
:103200003B737B68DB68FA689A6073E07B68DB6815
:10321000DB68BB613B7E43F040033B767B68DB6849
:10322000BA69DA607868FFF729FE00237B61BB7D0D
:1032300043F00103BB757B681B7A032B03D1BB7D75
:1032400043F00203BB75BB7D43F00403BB75BB7D3C
:1032500043F00803BB75BB7D43F02003BB757B685F
:103260005B7A002B03D0BB7D43F01003BB757B68FA
:10327000DB687A699A63142002F022FC7B68DB68C1
:10328000DB68BB617B681B7A032B03D1BB7E43F0F9
:103290000103BB767B68DB68BA69DA607B681B7AFE
:1032A000032B27D17B68DB681B6B3B61FB7C012216
:1032B00062F38303FB74BB7C6FF3C713BB74FB7CAB
:1032C00043F01003FB74BB7C2D2262F30603BB7436
:1032D0007B68DB683A691A63C82002F0F1FBBB7CAB
:1032E00043F08003BB747B68DB683A691A63C820CB
:1032F00002F0E6FB7B68DB78012B10D17B68DB6892
:103300009B68FB603B7B052262F344033B733B7B82
:1033100043F020033B737B68DB68FA689A60FB7FAD
:1033200018462037BD4680BD80B485B000AF7860B8
:103330000023FB730023BB603B7A43F001033B7225
:103340007B68DB687A68D2689168BA680A439A60D9
:10335000FB7B18461437BD465DF8047B704700BF01
:1033600080B485B000AF78600023FB730023BB609E
:103370003B7A43F001033B727B68DB687A68D26872
:103380009168BA68D2430A409A60FB7B18461437AA
:10339000BD465DF8047B704780B586B000AF7860AD
:1033A00039600023FB7400237B610023FB60FB6812
:1033B00043F02003FB603B68DBB203F01F03DBB28A
:1033C00003F01F039B01FA6822F4F8621343FB60C9
:1033D0007B68DB68FA681A617B68DB681B69FB60E5
:1033E0007B6901337B617B69094A934200D906E01E
:1033F000FB685B0903F00103DBB2012BECD0032077
:1034000002F03AFBFB7C18461837BD4680BD00BF72
:10341000400D030080B586B000AF78600023FB74D8
:1034200000237B610023FB60FB6843F01003FB601B
:103430007B68DB68FA681A617B68DB681B69FB6084
:103440007B6901337B617B69094A934200D906E0BD
:10345000FB681B0903F00103DBB2012BECD0032056
:1034600002F00AFBFB7C18461837BD4680BD00BF42
:10347000400D030080B584B000AF78600B46FB7050
:103480000023FB737B68DB68DB68BB60FB7A6FF350
:103490004513FB72FB7A6FF38613FB72FB78012BEB
:1034A00004D1FB7A43F02003FB7206E0FB78002B8B
:1034B00003D1FB7A43F04003FB727B68DB68BA6898
:1034C000DA60322002F0FCFAFB7B18461037BD466A
:1034D00080BD00BF80B483B000AF78607B68DB68DC
:1034E0005B6903F0010318460C37BD465DF8047BA9
:1034F000704700BF80B582B000AF78607868FFF792
:10350000E9FF0346012B14BF01230023DBB2184659
:103510000837BD4680BD00BF80B582B000AF78607F
:103520007868FFF7D7FF0346012B0CBF0123002368
:10353000DBB218460837BD4680BD00BF80B485B0F9
:1035400000AF78600023FB607B68DB685B69FB6031
:103550007B68DB689B69FA681340FB60FB68184670
:103560001437BD465DF8047B704700BF80B483B05C
:1035700000AF78607B68DB685B6818460C37BD4637
:103580005DF8047B704700BF80B485B000AF786001
:103590000B46FB707B681B691B68FB60FB7803F0C4
:1035A0000303DAB23B7B62F301033B737B681B6965
:1035B000FA681A601437BD465DF8047B704700BF97
:1035C00080B58CB000AF7860002387F82B300023E3
:1035D0007B6200233B620023FB610023BB6100236D
:1035E0007B617B68D3F80C3100221A607B681B6911
:1035F0001B683B6297F821306FF3C40387F82130D2
:103600007B681B693A6A1A607B68DB7A012B33D1CD
:1036100078680321FFF7B8FF7B68DB6880225A6275
:103620004023FB838023BB837B68DB68FA699A6253
:10363000BA8BFB8B13449BB23B8380237B837B68D9
:10364000DB68BA69C3F804213A8B7B8B13449BB2C5
:103650003B8300237B837B68DB68BA69C3F808215E
:103660003A8B7B8B13449BB23B8300237B837B6829
:10367000DB68BA69C3F80C2178681021FFF78CFE6B
:103680007868FFF7C7FE7B681B6900221A617B68B8
:103690001B6900225A617B681B694FF0FF329A61F7
:1036A0007B681B690022DA610023FB623AE07A68DA
:1036B000FB6A04339B0013449B681B687B6297F88A
:1036C000273023F07F03DBB2002B0ED000237B6278
:1036D00097F8273043F0400387F8273097F82730D2
:1036E00043F0080387F8273001E000237B627A6803
:1036F000FB6A04339B0013449B687A6A1A607A68F9
:10370000FB6A04339B0013449B6800221A617A68A9
:10371000FB6A04339B0013449B68FF229A60FB6A98
:103720000133FB627B685B781A46FB6A9A42BED81B
:103730000023FB6235E07A68FB6A14339B00134474
:103740005B681B68FB60FB7B23F07F03DBB2002B15
:103750000AD00023FB60FB7B43F04003FB73FB7B41
:1037600043F00803FB7301E00023FB607A68FB6A07
:1037700014339B0013445B68FA681A607A68FB6A2A
:1037800014339B0013445B6800221A617A68FB6A59
:1037900014339B0013445B68FF229A60FB6A013379
:1037A000FB627B685B781A46FB6A9A42C3D80023A7
:1037B0007B617B7D43F001037B757B681B697A68C5
:1037C000126911697A69D24311407A690A431A6110
:1037D0007B68DB78012B1BD100233B613B7C43F0F2
:1037E00001033B743B7C43F002033B743B8A402261
:1037F00062F38A033B82BB7C43F00103BB747B8A88
:10380000402262F349037B827B681B693A691A6331
:10381000786800F007F897F82B3018463037BD4627
:1038200080BD00BF80B584B000AF78600023FB731B
:103830000023BB607B68DB6800229A617B68DB68E1
:103840004FF0FF325A617868FFF7F6FA7B68DB7851
:10385000002B03D13B7A43F010033B727B7A43F099
:1038600008037B727B7A43F010037B727B7A43F010
:1038700020037B72BB7A43F00403BB72BB7A43F034
:103880000803BB723B7A43F008033B72BB7A43F0F8
:103890001003BB72BB7A43F02003BB727B68DB680A
:1038A0007A68D2689169BA68D2431140BA680A430B
:1038B0009A61FB7B18461037BD4680BD80B485B049
:1038C00000AF78600023FB737B681B699B68BB605B
:1038D0003B7AC3F34103DBB2022B09D0032B04D0A4
:1038E000012B02D00323FB7305E00223FB7302E0EC
:1038F0000123FB7300BFFB7B18461437BD465DF800
:10390000047B704780B487B000AF78600023FB75FC
:103910000023BB607B681B699B683B617B689B697C
:103920001B68FB603B7CC3F34103DBB2022B04D07A
:10393000BB896FF30A03BB8105E0BB89032262F3F5
:103940000A03BB8100BF7B689B69FA681A607B7AB7
:1039500043F001037B727B681B697A6812695168C6
:10396000BA68D2431140BA680A435A60FB7D1846D0
:103970001C37BD465DF8047B704700BF80B487B03C
:1039800000AF786039600023FB740023FB600023E4
:10399000BB603B685B78012B0FD13B681B787A6872
:1039A00004339B0013449B687B613B681B781A4679
:1039B000012393409BB23B810EE03B681B787A6801
:1039C00014339B0013445B687B613B681B781A4689
:1039D000012393409BB27B817B691B68FB607B7BEF
:1039E00023F07F03DBB2002B27D13B689B689BB29F
:1039F000C3F30A039AB2BB8962F30A03BB813B6833
:103A0000DB7803F00303DAB2BB7B62F38303BB739F
:103A10003B68DB88DBB203F00F03DAB2FB8962F3A9
:103A20008913FB81FB7B43F01003FB737B7B43F02B
:103A300080037B73FA687B691A607B681B697A680C
:103A40001269D169BA680A43DA61FB7C18461C37EF
:103A5000BD465DF8047B704780B487B000AF7860E6
:103A600039600023FB740023FB600023BB603B68CC
:103A70005B78012B0FD13B681B787A6804339B007D
:103A800013449B687B613B681B781A460123934073
:103A90009BB23B810EE03B681B787A6814339B0035
:103AA00013445B687B613B681B781A460123934093
:103AB0009BB27B817B7B6FF3C7137B73FA687B6957
:103AC0001A607B681B697A681269D169BA68D24347
:103AD0000A40DA61FB7C18461C37BD465DF8047B62
:103AE000704700BF80B588B000AF786039600023B0
:103AF000FB770023BB6100237B6100233B613B68B4
:103B00005B78012B40F0AB803B681B787A6804330C
:103B10009B0013449B681B687B613B681B787A6839
:103B200004339B0013449B681B693B613B685B69E2
:103B3000002B09D13B696FF312033B617B8A0122A1
:103B400062F3CC037B8222E03B685B69C3F3120221
:103B50003B6962F312033B613B685A693B689B68AF
:103B600013445A1E3B689B68B2FBF3F39BB2C3F34A
:103B700009039AB27B8A62F3CC037B823B68DB78D1
:103B8000012B04D1FB7C012262F34613FB743B68DA
:103B90001B787A6804339B0013449B683A691A6166
:103BA0007B68DB78012B0AD13B681B787A68043389
:103BB0009B0013449B683A6812695A6115E03B68A0
:103BC000DB78012B11D03B685B69002B0DD03B6883
:103BD0001B781A4601239340BB617B681B697A6896
:103BE0001269516BBA690A435A633B68DB78012B4F
:103BF00014D17B681B699B68FB60FB68C3F30D23D2
:103C00009BB203F00103002B04D1FB7D43F02003A2
:103C1000FB7503E0FB7D43F01003FB75FB7D43F078
:103C20000403FB75FB7D43F08003FB753B681B7849
:103C30007A6804339B0013449B687A691A603B6876
:103C4000DB78012B40F089803B68D9683B681A78A3
:103C50003B685B699BB27868FFF756F97DE03B688B
:103C60001B787A6814339B0013445B681B687B6184
:103C70003B681B787A6814339B0013445B681B69AC
:103C80003B613B685B69002B0DD13B689B68C3F3CC
:103C900012023B6962F312033B617B8A012262F3E9
:103CA000CC037B8220E03B685A693B689B681344E5
:103CB0005A1E3B689B68B2FBF3F39BB2C3F3090344
:103CC0009AB27B8A62F3CC037B827B8AC3F3C903FB
:103CD0009BB21A463B689B6803FB02F3C3F31202D4
:103CE0003B6962F312033B613B681B787A681433CB
:103CF0009B0013445B683A691A617B68DB78012B8F
:103D000009D13B681B787A6814339B0013445B68C5
:103D10003A6812695A613B68DB78012B0CD13B6829
:103D20005B79002B04D0FB7D43F02003FB7503E09F
:103D3000FB7D43F01003FB75FB7D43F00403FB7533
:103D4000FB7D43F08003FB753B681B787A68143376
:103D50009B0013445B687A691A60FB7F1846203722
:103D6000BD4680BD80B489B000AF78603960002363
:103D7000FB770023BB6100233B610023BB603B68F2
:103D80005B78012B70D17B689B697B617B691B68C9
:103D90003B617B691B69BB603B685B69002B09D198
:103DA0003B7A6FF306033B72BB7A012262F3C403D2
:103DB000BB7223E03B685A693B689B689A420ED904
:103DC0003B689A683B685A613B689B68DBB203F0CA
:103DD0007F03DAB23B7A62F306033B7209E03B6889
:103DE0005B69DBB203F07F03DAB23B7A62F306036E
:103DF0003B72BB7A012262F3C403BB72BA687B696F
:103E00001A617B68DB78012B09D13B681B787A68E3
:103E100004339B0013449B683A6812695A61FB7C27
:103E200043F00403FB74FB7C43F08003FB743A69AA
:103E30007B691A607B68DB78002B76D13B685B6915
:103E4000002B72D03B681B781A46012393401A4618
:103E5000BB691343BB617B681B697A681269516B4C
:103E6000BA690A435A6360E03B681B787A68143386
:103E70009B0013445B681B683B613B681B787A6856
:103E800014339B0013445B681B69BB603B685B6930
:103E9000002B0FD13B689B68DBB203F07F03DAB2E3
:103EA0003B7A62F306033B72BB7A012262F3C403DE
:103EB000BB7212E03B689A683B685A613B689B683A
:103EC000DBB203F07F03DAB23B7A62F306033B72A4
:103ED000BB7A012262F3C403BB723B681B787A6829
:103EE00014339B0013445B68BA681A617B68DB7803
:103EF000012B09D13B681B787A6814339B0013446B
:103F00005B683A6812695A61FB7C43F00403FB74F6
:103F1000FB7C43F08003FB743B681B787A681433A6
:103F20009B0013445B683A691A60FB7F184624378C
:103F3000BD465DF8047B704780B487B000AF786001
:103F400039600023FB750023FB603B685B78012B25
:103F50001CD13B681B787A6804339B0013449B6830
:103F60003B613B691B68FB60FB7B23F07F03DBB29B
:103F7000002B03D0FB7B43F04003FB73BB7B43F080
:103F80002003BB73FA683B691A6011E03B681B7839
:103F90007A6814339B0013445B683B613B691B6880
:103FA000FB60BB7B43F02003BB73FA683B691A607C
:103FB000FB7D18461C37BD465DF8047B704700BF8B
:103FC00080B487B000AF786039600023FB740023B1
:103FD000FB603B685B78012B08D13B681B787A68F3
:103FE00004339B0013449B687B6107E03B681B78AC
:103FF0007A6814339B0013445B687B617B691B68A0
:10400000FB60BB7B6FF34513BB733B68DB78032B13
:1040100003D03B68DB78022B03D1FB7B43F010031A
:10402000FB73FA687B691A60FB7C18461C37BD4637
:104030005DF8047B704700BF80B485B000AF786046
:104040007B681B699B69FB607B681B69DB69FA689D
:104050001340FB60FB681B0C18461437BD465DF827
:10406000047B704780B485B000AF78600B46FB706E
:10407000FB787A6814339B0013445B689B68FB6091
:104080007B681B695B69FA681340FB60FB68184634
:104090001437BD465DF8047B704700BF80B485B01F
:1040A00000AF78607B681B699B69FB607B681B695C
:1040B000DB69FA681340FB60FB689BB21846143753
:1040C000BD465DF8047B704780B487B000AF786070
:1040D00000233B61FB7C43F0C003FB74BB7C0122EB
:1040E00062F3C403BB743B7C182262F306033B7487
:1040F0007B685B6D3A691A617B68DB78012B16D1AE
:104100000023FB607B685B6D7A6802F5B9625A61D7
:104110007B685B6D1B68FB60FB7B43F08003FB737C
:104120004FF08023FB607B685B6DFA681A601C3778
:10413000BD465DF8047B704780B586B000AF7860FF
:104140007B68D3F81431002B39D07B681B699B68DE
:104150003B613B7C03F00103DBB2002B2FD07B687B
:104160009B7A002B11D07B6803F586731B68FB607C
:104170003B7B6FF341033B733B7B6FF300033B736C
:104180007B68D3F80C31FA681A6000237B613B7DB1
:1041900043F001033B757B681B697A6812695168BB
:1041A0007A690A435A60052001F08AFC7B681B6922
:1041B0007A68126951687A69D2430A405A6018379E
:1041C000BD4680BD80B485B000AF78607B689B7AC7
:1041D000002B1BD07B681B699B68FB603B7B03F05B
:1041E0000103DBB2002B11D07B6803F586731B68DB
:1041F000BB603B7A6FF341033B723B7A6FF3000382
:104200003B727B68D3F80C31BA681A601437BD462C
:104210005DF8047B704700BF80B584B000AF786064
:104220007B68012283F812210023FB6012E07A6888
:10423000FB6804339B0013449B68FF229A607A68F2
:10424000FB6814339B0013445B68FF229A60FB6891
:104250000133FB607B685B781A46FB689A42E6D8BC
:104260007B681B6900221A617B681B6900225A6106
:104270007B681B690022DA617B681B694FF0FF32A3
:104280009A617868FFF7C6F878681021FFF784F81C
:104290001037BD4680BD00BF80B487B000AF7860E6
:1042A000396000237B610023FB603B685B78012B56
:1042B0001FD13B681B787A6804339B0013449B68CA
:1042C0003B613B691B68FB60BB7B03F02003DBB2F7
:1042D000002B02D010237B612DE0BB7B03F0020397
:1042E000DBB2002B02D020237B6124E030237B61F2
:1042F00021E03B681B787A6814339B0013445B68A9
:104300003B613B691B68FB60BB7B03F02003DBB2B6
:10431000002B03D04FF480537B610CE0BB7B03F098
:104320000203DBB2002B03D04FF400537B6102E0A9
:104330004FF440537B617B6918461C37BD465DF8DE
:10434000047B704780B586B000AFF860B9607A60D2
:1043500000233B61BB685B78012B40D1BB681B78B5
:10436000FA6804339B0013449B687B617B691B687C
:104370003B617B68102B04D1F868B968FFF7DCFD5E
:1043800073E07B68202B04D1FB7C43F00803FB74B3
:1043900068E07B68302B1AD1BB7C03F02003DBB2D2
:1043A000002B07D0BB6800225A71F868B968FFF784
:1043B00007FE5AE0FB7C43F00403FB747B7C43F074
:1043C00080037B74FB7C43F08003FB744AE07B68D2
:1043D000002B47D17B7C6FF3C7137B7442E0BB6833
:1043E0001B78FA6814339B0013445B687B617B691C
:1043F0001B683B617B68B3F5805F04D1BB7C43F0F5
:104400002003BB742EE07B68B3F5005F04D1FB7C16
:1044100043F00803FB7425E07B68B3F5405F1AD1D5
:10442000BB7C03F02003DBB2002B07D0BB6800226B
:104430005A71F868B968FFF7C3FD16E0FB7C43F0DA
:104440000403FB747B7C43F080037B74FB7C43F0B0
:104450008003FB7406E07B68002B03D17B7C6FF349
:10446000C7137B743A697B691A601837BD4680BDF3
:1044700080B483B000AF03463960FB713B68122201
:104480001A80034B18460C37BD465DF8047B704715
:104490004800002080B483B000AF03463960FB7150
:1044A0003B6804221A80034B18460C37BD465DF862
:1044B000047B70476800002080B582B000AF0346DF
:1044C0003960FB71FB79002B05D1084808493A682F
:1044D000FCF79CFA04E0074805493A68FCF796FAAD
:1044E000034B18460837BD4680BD00BF247800083E
:1044F000A40400204878000880B582B000AF0346CD
:104500003960FB71044805493A68FCF77FFA034BB0
:1045100018460837BD4680BD6C780008A40400200A
:1045200080B582B000AF03463960FB71FB79002B88
:1045300005D1084808493A68FCF768FA04E00748DA
:1045400005493A68FCF762FA034B18460837BD463E
:1045500080BD00BF80780008A40400209078000887
:1045600080B582B000AF03463960FB71FB79002B48
:1045700005D1084808493A68FCF748FA04E00548BC
:1045800005493A68FCF742FA034B18460837BD461E
:1045900080BD00BFA0780008A404002080B582B0D0
:1045A00000AF03463960FB71FB79002B05D1084849
:1045B00008493A68FCF72AFA04E0054805493A68D0
:1045C000FCF724FA034B18460837BD4680BD00BFF0
:1045D000AC780008A404002080B584B000AF034686
:1045E000FB71FB79104A52F8233018460121FEF77F
:1045F000C7F9FB790D4A32F81330BB6001233B73D6
:104600000023BB730123FB7302237B73FB79084AEE
:1046100052F8232007F108031046194600F0F0FF76
:104620001037BD4680BD00BFC4780008BC780008C4
:104630006C00002080B483B000AF0346FB71FB79AF
:10464000064A52F82330FA79054931F812201A83C4
:104650000C37BD465DF8047B704700BF6C0000203E
:10466000BC78000880B483B000AF0346FB71FB79CF
:10467000064A52F82330FA79054931F812205A8354
:104680000C37BD465DF8047B704700BF6C0000200E
:10469000BC78000880B483B000AF0346FB71FB799F
:1046A000094A52F82330FA79074951F82220526911
:1046B000F979064830F811104A405A610C37BD4666
:1046C0005DF8047B704700BF6C000020BC780008D8
:1046D00080B588B000AF03460A46FB711346BB7134
:1046E000012318460121FEF74BF94FF480400121C8
:1046F000FEF7BEF900233B770023FB770123BB6164
:10470000FB79174A52F8232007F11803104619467F
:1047100000F076FFBB79012B1FD100220023104649
:104720001946FDF795FD01233B6100233B750823E6
:104730007B750123BB7507F11003184601F0D8FF04
:1047400006233B730F237B730F23BB730123FB7380
:1047500007F10C03184601F0D5F92037BD4680BD9E
:104760007C00002080B582B000AF0346FB71FB796E
:10477000064A52F8233001221846114601F00AF881
:10478000034618460837BD4680BD00BF7C000020A8
:1047900080B500AF154A154BD3F8883043F4700349
:1047A000C2F88830124A124B1B6843F001031360B1
:1047B0000F4B00229A600E4A0D4B1B6823F0847346
:1047C00023F4803313600A4B0A4A5A60084A084BA4
:1047D0001B6823F480231360054B0022DA6000F08D
:1047E00087F8024B4FF000629A6080BD00ED00E058
:1047F000003802401030002480B487B000AF00239E
:104800003B6100237B610223FB600023BB6002232A
:104810007B60324B9B6803F00C033B613B69042BCC
:1048200007D0082B09D0002B3FD12D4B2D4A1A6001
:104830003FE02B4B2C4A1A603BE0284B5B6803F4AB
:1048400080039B0DBB60254B5B6803F03F037B60DF
:10485000BB68002B0DD0244A7B68B2FBF3F21F4BE0
:10486000596847F6C0730B409B0903FB02F37B6159
:104870000CE01C4A7B68B2FBF3F2184B596847F610
:10488000C0730B409B0903FB02F37B61134B5B6816
:1048900003F440331B0C01335B00FB607A69FB6857
:1048A000B2FBF3F30E4A136003E00D4B0D4A1A609E
:1048B00000BF0A4B9B6803F0F0031B090B4AD35C53
:1048C000DBB23B61064B1A683B6922FA03F3044AE8
:1048D00013601C37BD465DF8047B7047003802400A
:1048E000800000200024F40000127A0084000020E0
:1048F00080B483B000AF00237B6000233B60414A5B
:10490000404B1B6843F4803313603E4B1B6803F439
:1049100000333B607B6801337B603B68002B03D135
:104920007B68B3F5A06FF0D1364B1B6803F40033FE
:10493000002B02D001233B6001E000233B603B6879
:10494000012B42D12F4A2F4B1B6C43F08053136431
:104950002D4A2D4B1B6843F480431360294A294B91
:104960009B689360274A274B9B6843F400439360FE
:10497000244A244B9B6843F4A0539360214B234A61
:104980005A60204A1F4B1B6843F08073136000BFBE
:104990001C4B1B6803F00073002BF9D01C4B40F23A
:1049A00005621A60174A174B9B6823F00303936054
:1049B000144A144B9B6843F00203936000BF114BF1
:1049C0009B6803F00C03082BF9D10E4A0D4B9B6832
:1049D00023F4000393600B4B0E4AC3F88420094A6A
:1049E000084B1B6843F08063136000BF054B1B68D6
:1049F00003F00063002BF9D00C37BD465DF8047B53
:104A0000704700BF00380240007000400854400763
:104A1000003C02400040002080B584B000AF7860C8
:104A20000B46FB70FB7878681946FEF7D5FA7B6871
:104A3000012283F812217B68002283F813210023CE
:104A4000FB6023E0FA6813469B001344DB0003F588
:104A50008C737A681344BB60BB6801225A70FB6890
:104A6000DAB2BB681A70FB689AB2BB68DA80BB68BE
:104A70000022DA70BB6840229A60BB680022DA60CC
:104A8000BB6800225A61FB680133FB607B685B787E
:104A90001A46FB689A42D5D80023FB6023E0FA68E7
:104AA00013469B001344DB0003F55C737A681344E0
:104AB000BB60BB6800225A70FB68DAB2BB681A7030
:104AC000FB689AB2BB68DA80BB680022DA70BB6808
:104AD00040229A60BB680022DA60BB6800225A61FB
:104AE000FB680133FB607B685B781A46FB689A427F
:104AF000D5D87868FEF734FC7868FEF727FB78682D
:104B00000021FEF7B7FC7868FEF75AFD7868FEF7DB
:104B10000BFC1037BD4680BD80B584B000AF786017
:104B2000084611461A460346FB700B463B80134667
:104B3000BB70FB785BB2002B0CDAFB7803F07F02D2
:104B400013469B001344DB0003F58C737A6813440F
:104B5000FB600BE0FB7803F07F0213469B001344DD
:104B6000DB0003F55C737A681344FB60FB7803F0A9
:104B70007F03DAB2FB681A70FB78DB09DBB21A46F6
:104B8000FB685A703A88FB689A60FB68BA78DA70FA
:104B9000FB685B78002B04D0FB681B789AB2FB683B
:104BA000DA80BB78022B02D1FB6800221A71786888
:104BB000F968FEF7E3FE002318461037BD4680BDB6
:104BC00080B584B000AF78600B46FB70FB785BB2B9
:104BD000002B0CDAFB7803F07F0213469B00134492
:104BE000DB0003F58C737A681344FB600BE0FB7801
:104BF00003F07F0213469B001344DB0003F55C7354
:104C00007A681344FB60FB7803F07F03DAB2FB6839
:104C10001A70FB78DB09DBB21A46FB685A707868B9
:104C2000F968FEF719FF002318461037BD4680BD0E
:104C300080B586B000AFF8607A601A460B46FB720A
:104C400013463B81FB7A03F07F0213469B0013441B
:104C5000DB0003F55C73FA6813447B617B697A6857
:104C6000DA603A897B695A617B6900229A617B69C3
:104C700000225A70FB7A03F07F03DAB27B691A7064
:104C8000FB68DB78012B02D17A687B691A617B694A
:104C90001B78002B04D1F8687969FFF763F803E00B
:104CA000F8687969FEF71EFF002318461837BD46DD
:104CB00080BD00BF80B586B000AFF8607A603B6011
:104CC0000B46FB72FB7A03F07F0213469B001344F2
:104CD000DB0003F58C73FA6813447B617B69012266
:104CE0005A70FB7A03F07F03DAB27B691A707B6932
:104CF0007A68DA607A687B691A617B6900229A6156
:104D00007B693A685A617B691B78002B04D1F8688B
:104D10007969FFF727F803E0F8687969FEF7E2FEA2
:104D2000002318461837BD4680BD00BF80B584B04B
:104D300000AF78600B46FB70FB785BB2002B0CDA9F
:104D4000FB7803F07F0213469B001344DB0003F55E
:104D50008C737A681344FB6009E0FA7813469B0071
:104D60001344DB0003F55C737A681344FB60FB6853
:104D700001229A70FB7803F07F03DAB2FB681A70A5
:104D8000FB78DB09DBB21A46FB685A707868F96871
:104D9000FFF7D2F8002318461037BD4680BD00BF8C
:104DA00080B584B000AF78600B46FB70FB785BB2D7
:104DB000002B0CDAFB7803F07F0213469B001344B0
:104DC000DB0003F58C737A681344FB6009E0FA7822
:104DD00013469B001344DB0003F55C737A681344AD
:104DE000FB60FB6800229A70FB7803F07F03DAB265
:104DF000FB681A70FB78DB09DBB21A46FB685A7055
:104E00007868F968FFF7DCF8002318461037BD46CC
:104E100080BD00BF80B582B000AF78600B46FB70EC
:104E2000FB785BB2002B07DAFB7803F07F0378682E
:104E30001946FEF7B1FA02E07868FEF7EBFA0023B4
:104E400018460837BD4680BD80B485B000AF786095
:104E50000B46FB700023FB60FB7803F07F03DAB2A4
:104E6000BB8962F30A13BB817B681B697A6812698C
:104E70001168FA680A431A601437BD465DF8047B6E
:104E8000704700BF80B584B000AF78607B681B6955
:104E90005B68FB603B7B6FF341033B737B681B6983
:104EA000FA685A60032000F00BFE1037BD4680BD43
:104EB00080B584B000AF78607B681B695B68FB607D
:104EC0003B7B43F002033B737B681B69FA685A60C3
:104ED000032000F0F5FD1037BD4680BD80B584B0DD
:104EE00000AF78600B46FB700023BB60FB785BB2C1
:104EF000002B0CDAFB7803F07F0213469B0013446F
:104F0000DB0003F58C737A681344FB6009E0FA78E0
:104F100013469B001344DB0003F55C737A6813446B
:104F2000FB607868F968FFF7B7F9B860BB681846A6
:104F30001037BD4680BD00BF80B586B000AFF860B9
:104F40000B467A60FB72FB7A5BB2002B0CDAFB7AC1
:104F500003F07F0213469B001344DB0003F58C73C0
:104F6000FA6813447B6109E0FA7A13469B00134404
:104F7000DB0003F55C73FA6813447B61F8687969B8
:104F80007A68FFF7DFF91837BD4680BD80B483B07B
:104F900000AF03463960FB7197F90730002B0BDA3D
:104FA0000D49FB7903F00F03043B3A68D2B21201BA
:104FB000D2B20B441A7609E0084997F907303A68EB
:104FC000D2B21201D2B20B4483F800230C37BD4693
:104FD0005DF8047B704700BF00ED00E000E100E0F9
:104FE00080B582B000AF78607B68B3F1807F01D379
:104FF000012311E00A4A7B6823F07F43013B5360A1
:105000004FF0FF300F21FFF7C1FF054B00229A60E0
:10501000034B07221A60002318460837BD4680BD9F
:1050200010E000E080B588B000AF00F0CFF900F0EC
:10503000B7F900F045F900F08FF98C4B4BF6803250
:105040001A808A4B8A4A9A60884B8A4A5A60874BF0
:1050500001229A81854B0122DA81844801F03CFCCF
:1050600000200021FFF734FB83484FF4405100F04B
:10507000E1FB00BF0020FFF775FB0346002BF9D0D2
:1050800000BF0020FFF76EFB0346012BF9D07A48E2
:105090004FF4405100F0DCFB784BBB6100237B6197
:1050A000774B01221A7000233B61764B1B68B3F5E6
:1050B000FA7F04D1704B4FF400525A830BE0714BCE
:1050C0001B68B3F57A7F06D16E4B00221A606A4BDB
:1050D0004FF400521A83BB1D1846FBF725FE03460A
:1050E000002B00F0BE800023FB60674B01221A807A
:1050F000664B674A1A6067480121FCF7BFFD002331
:10510000BB60AAE00020FFF72DFB0346012B2AD14C
:1051100000BF0020FFF726FB0346012BF9D05648BD
:105120004FF4704100F086FB0023FB6102E0FB6955
:105130000133FB61FB69B3F1807FF8D34E484FF434
:10514000704100F085FB544A3B46118892781980E3
:105150009A703B4618460321FBF770FD4A4B00222C
:105160001A8000BF7DE04D4B1B68002B75D04B4B68
:1051700000221A604A4B1B68012B09D1434B444A59
:105180001A60484B484A1A60454B00221A6008E0F2
:105190003E4B454A1A60434B3D4A1A60404B012240
:1051A0001A600023FB6155E0404B1B88B3F5006F8C
:1051B00024D23E4B1B885A1C91B23C4A118019469E
:1051C000384B1A68FB695B0013441A88384B23F884
:1051D0001120384B1B88B3F5006F38D1354B0022B6
:1051E0001A8035484FF48051FBF728FD224B4FF4CD
:1051F00080521A83314B0A221A6028E02D4B1B88FB
:10520000B3F5006F23D22B4B1B885A1C91B2294A4D
:1052100011801946234B1A68FB695B0013441A88F6
:10522000254B23F81120214B1B88B3F5006F0ED1BD
:105230001E4B00221A801E484FF48051FBF7FEFCE3
:105240000D4B4FF480521A831C4B0A221A60FB69E3
:105250000133FB61FB690F2BA6D9FB68002B7FF79D
:1052600051AF0C480021FCF709FD15E7801700201D
:10527000000020410080BB46000C02406F12833AC0
:1052800078170020F0060020800400207C17002002
:10529000F82D002000380040EC7800086804002059
:1052A00078040020B4170020C82D002074040020CA
:1052B000C417002076040020F8060020BC17002048
:1052C00080B584B000AF08200121FDF759FB4FF4F1
:1052D00070433B6001233B710023BB7103237B714F
:1052E0000023FB713B461948194600F089F94FF439
:1052F0008063BB6002233B730023BB730023FB73FB
:1053000003237B7307F108031148194600F078F96D
:105310000823BB6002233B730023BB730023FB7392
:1053200003237B7307F108030A48194600F068F964
:1053300007480A21052200F0D1FA06480321052278
:1053400000F0CCFA1037BD4680BD00BF000C024013
:10535000000402400008024080B584B000AF0E484F
:10536000FCF7D4FA0D4BBB6020237B800023BB806D
:105370000823BB814FF440733B800023FB803B46F6
:1053800005481946FCF740FB034860210122FCF761
:105390001BFE1037BD4680BD00380040007701007D
:1053A00080B582B000AF4FF4C06000F099FB2423B9
:1053B0003B710123FB7100237B710123BB713B1DFA
:1053C000184600F09FFB0837BD4680BD80B582B00F
:1053D00002AF41F206000121FDF7D2FA4FF48040FE
:1053E0000121FDF727FB0120FDF7E8F80820012146
:1053F000FDF7C6FA094B1B68094AA2FB03239B0968
:105400001846FFF7EDFD074B009307480121074AB7
:10541000074B00F061FCBD4680BD00BF800000204E
:10542000D34D621094000020C42700202C000020DF
:105430002801002080B400AF134B1B680133124ACF
:105440001360124B1B68002B04D0104B1B68013BF0
:105450000E4A13600E4B1B88012B0DD10D4B1B68A0
:1054600001330C4A13600B4B1B68B3F57A7F06D3EC
:10547000094B00221A6002E0074B00221A60BD4669
:105480005DF8047B704700BFF0060020BC170020C9
:1054900080040020101700207C04002080B500AF9D
:1054A0000148FBF703FD80BDC427002080B500AF95
:1054B000094B9B7A002B0AD0084A084B1B6823F043
:1054C00006031360FFF764F90348FEF77BFE4FF411
:1054D000802001F0F3F980BDC427002010ED00E02A
:1054E00080B582B000AF78607B683C4A934208D1B7
:1054F00001200121FDF7DAFA01200021FDF7D6FA9B
:1055000068E07B68364A934208D102200121FDF70A
:10551000CDFA02200021FDF7C9FA5BE07B68314A31
:10552000934208D104200121FDF7C0FA0420002194
:10553000FDF7BCFA4EE07B682B4A934208D1082065
:105540000121FDF7B3FA08200021FDF7AFFA41E091
:105550007B68264A934208D110200121FDF7A6FA64
:1055600010200021FDF7A2FA34E07B68204A934224
:1055700008D120200121FDF799FA20200021FDF714
:1055800095FA27E07B681B4A934208D1402001210D
:10559000FDF78CFA40200021FDF788FA1AE07B68BD
:1055A000154A934208D180200121FDF77FFA80201F
:1055B0000021FDF77BFA0DE07B68104A934209D188
:1055C0004FF480700121FDF771FA4FF480700021D3
:1055D000FDF76CFA0837BD4680BD00BF00000240F1
:1055E0000004024000080240000C0240001002408B
:1055F0000014024000180240001C0240002002403B
:1056000080B487B000AF7860396000237B610023ED
:105610003B610023FB6000237B6176E07B69012214
:1056200002FA03F33B613B681A683B691340FB6075
:10563000FA683B699A4265D17B681A687B695B00AE
:10564000194603238B40DB431A407B681A607B6852
:105650001A683B681B7919467B695B0001FA03F302
:105660001A437B681A603B681B79012B03D03B68A7
:105670001B79022B2ED17B689A687B695B001946E7
:1056800003238B40DB431A407B689A607B689A68EF
:105690003B685B7919467B695B0001FA03F31A43A7
:1056A0007B689A607B685A687B699BB219460123C4
:1056B0008B40DB431A407B685A607B685B683A68C2
:1056C000927911467A6992B201FA02F292B21A43C1
:1056D0007B685A607B68DA687B699BB25B00032158
:1056E00001FA03F3DB431A407B68DA607B68DA680F
:1056F0003B68DB7919467B695B0001FA03F31A43C7
:105700007B68DA607B6901337B617B690F2B85D90C
:105710001C37BD465DF8047B704700BF80B483B082
:1057200000AF78607B684FF6FF721A607B680022DA
:105730001A717B6800225A717B6800229A717B681B
:105740000022DA710C37BD465DF8047B704700BF5C
:1057500080B485B000AF78600B467B804FF4803317
:10576000FB607A88FB681343FB60FA687B68DA6148
:105770007A887B68DA61FA687B68DA617B68DB6962
:10578000FB607B68DB69FB601437BD465DF8047B1A
:10579000704700BF80B485B000AF78600B467B8057
:1057A0000023FB737B681A697B881340002B02D0AF
:1057B0000123FB7301E00023FB73FB7B18461437C6
:1057C000BD465DF8047B704780B483B000AF78605D
:1057D0007B681B699BB218460C37BD465DF8047B9D
:1057E000704700BF80B485B000AF78600B467B8007
:1057F0000023FB737B685A697B881340002B02D01F
:105800000123FB7301E00023FB73FB7B1846143775
:10581000BD465DF8047B704780B483B000AF78600C
:105820007B685B699BB218460C37BD465DF8047B0C
:10583000704700BF80B483B000AF78600B467B80B8
:105840007B687A881A830C37BD465DF8047B704705
:1058500080B483B000AF78600B467B807B687A8829
:105860005A830C37BD465DF8047B704780B483B023
:1058700000AF78600B467B8013467B707B78002BF3
:1058800003D07B687A881A8302E07B687A885A831F
:105890000C37BD465DF8047B704700BF80B483B011
:1058A00000AF78600B467B807A887B685A610C3742
:1058B000BD465DF8047B704780B483B000AF78606C
:1058C0000B467B807B685A697B885A407B685A61AB
:1058D0000C37BD465DF8047B704700BF80B485B0CF
:1058E00000AF78600B467B8013467B700023FB6023
:1058F0000023BB607B787A8802F007029200934015
:10590000FB607B88DB089BB218467B88DB089BB278
:105910001A467B68083253F822207B8803F007037D
:105920009B0019460F238B40DB4302EA03017B688F
:1059300000F1080243F822107B88DB089BB21A466C
:105940007B68083253F82220FB681343BB607B88D6
:10595000DB089BB21A467B680832B96843F822100C
:105960001437BD465DF8047B704700BF80B483B038
:1059700000AF78600C37BD465DF8047B704700BF10
:1059800080B483B000AF78600B46FB700C37BD4627
:105990005DF8047B704700BF80B584B000AF7860CD
:1059A00001200121FCF7ECFF4FF4D853BB60032327
:1059B0007B7302233B730023BB730023FB7307F14C
:1059C000080320481946FFF71BFE1E4808210A223B
:1059D000FFF784FF1B4809210A22FFF77FFF1948C0
:1059E0000B210A22FFF77AFF16480C210A22FFF743
:1059F00075FF4FF48063BB600123BB730123FB730E
:105A000003237B7307F108030E481946FFF7F8FDDF
:105A10000C480A210A22FFF761FF4FF48040012160
:105A2000FDF726F880200121FCF7C8FF4FF08050D9
:105A30000121FDF795F8012000F040FF1037BD4629
:105A400080BD00BF0000024080B584B000AF786028
:105A50004FF4C06000F044F843233B7301237B7391
:105A60000323BB730123FB7307F10C03184600F0FB
:105A700049F81037BD4680BD80B485B000AF78606E
:105A80000023FB607A6813461B019B1ADB001A4651
:105A90000A4BA3FB0213D21A520813449B08BB60A3
:105AA000FB680133FB60FA68BB689A4200D900E0EA
:105AB000F6E71437BD465DF8047B7047254992240C
:105AC00080B582B000AF78607B684FF47A7202FBD9
:105AD00003F31846FFF7D0FF0837BD4680BD00BF6F
